{
  "contractName": "escrow",
  "abi": [
    {
      "inputs": [],
      "stateMutability": "nonpayable",
      "type": "constructor"
    },
    {
      "inputs": [
        {
          "internalType": "address",
          "name": "",
          "type": "address"
        }
      ],
      "name": "deposits",
      "outputs": [
        {
          "internalType": "uint256",
          "name": "",
          "type": "uint256"
        }
      ],
      "stateMutability": "view",
      "type": "function",
      "constant": true
    },
    {
      "inputs": [
        {
          "internalType": "address",
          "name": "payee",
          "type": "address"
        }
      ],
      "name": "deposit",
      "outputs": [],
      "stateMutability": "payable",
      "type": "function",
      "payable": true
    },
    {
      "inputs": [
        {
          "internalType": "address payable",
          "name": "payee",
          "type": "address"
        }
      ],
      "name": "withdraw",
      "outputs": [],
      "stateMutability": "nonpayable",
      "type": "function"
    }
  ],
  "bytecode": "0x608060405234801561001057600080fd5b50336000806101000a81548173ffffffffffffffffffffffffffffffffffffffff021916908373ffffffffffffffffffffffffffffffffffffffff16021790555061033c806100606000396000f3fe6080604052600436106100345760003560e01c806351cff8d914610039578063f340fa011461008a578063fc7e286d146100ce575b600080fd5b34801561004557600080fd5b506100886004803603602081101561005c57600080fd5b81019080803573ffffffffffffffffffffffffffffffffffffffff169060200190929190505050610133565b005b6100cc600480360360208110156100a057600080fd5b81019080803573ffffffffffffffffffffffffffffffffffffffff169060200190929190505050610260565b005b3480156100da57600080fd5b5061011d600480360360208110156100f157600080fd5b81019080803573ffffffffffffffffffffffffffffffffffffffff1690602001909291905050506102ee565b6040518082815260200191505060405180910390f35b6000809054906101000a900473ffffffffffffffffffffffffffffffffffffffff1673ffffffffffffffffffffffffffffffffffffffff163373ffffffffffffffffffffffffffffffffffffffff161461018c57600080fd5b6000600160008373ffffffffffffffffffffffffffffffffffffffff1673ffffffffffffffffffffffffffffffffffffffff1681526020019081526020016000205490506000600160008473ffffffffffffffffffffffffffffffffffffffff1673ffffffffffffffffffffffffffffffffffffffff168152602001908152602001600020819055508173ffffffffffffffffffffffffffffffffffffffff166108fc829081150290604051600060405180830381858888f1935050505015801561025b573d6000803e3d6000fd5b505050565b600034905080600160008473ffffffffffffffffffffffffffffffffffffffff1673ffffffffffffffffffffffffffffffffffffffff1681526020019081526020016000205401600160008473ffffffffffffffffffffffffffffffffffffffff1673ffffffffffffffffffffffffffffffffffffffff168152602001908152602001600020819055505050565b6001602052806000526040600020600091509050548156fea264697066735822122016ef4c69da42a824a116c586f059785f5d1c9acbb5727d62e2604f85963a726464736f6c63430006040033",
  "source": "pragma solidity ^0.6.4;\r\n\r\ncontract escrow{\r\n    address agent;\r\n    mapping(address => uint256) public deposits;\r\n   // address[] payees;\r\n    \r\n    modifier onlyAgent(){\r\n        require(msg.sender == agent);\r\n        _ ;\r\n    }\r\n    \r\n    constructor () public{\r\n        agent= msg.sender;\r\n    }\r\n    \r\n    function deposit(address payee) public payable {\r\n        uint256 amount = msg.value;\r\n        deposits[payee] = deposits[payee] + amount;\r\n    }\r\n    \r\n    function withdraw(address payable payee) public onlyAgent {\r\n        uint256 payment = deposits[payee];\r\n        deposits[payee]=0;\r\n        payee.transfer(payment);\r\n    }\r\n}  \r\n",
  "sourcePath": "C:/xampp/htdocs/home-rental/contracts/escrow.sol",
  "compiler": {
    "name": "solc",
    "version": "0.6.4+commit.1dca32f3.Emscripten.clang"
  },
  "schemaVersion": "3.3.4",
  "updatedAt": "2021-03-22T06:07:11.759Z",
  "networkType": "ethereum",
  "devdoc": {
    "methods": {}
  },
  "userdoc": {
    "methods": {}
  }
}